{
  "contractName": "PatientRecords",
  "abi": [
    {
      "inputs": [
        {
          "internalType": "address",
          "name": "",
          "type": "address"
        }
      ],
      "name": "patients",
      "outputs": [
        {
          "internalType": "string",
          "name": "name",
          "type": "string"
        },
        {
          "internalType": "uint256",
          "name": "dateOfBirth",
          "type": "uint256"
        },
        {
          "internalType": "uint256",
          "name": "aadharNo",
          "type": "uint256"
        },
        {
          "internalType": "string",
          "name": "gender",
          "type": "string"
        },
        {
          "internalType": "string",
          "name": "insuranceId",
          "type": "string"
        }
      ],
      "stateMutability": "view",
      "type": "function",
      "constant": true
    },
    {
      "inputs": [
        {
          "internalType": "string",
          "name": "_name",
          "type": "string"
        },
        {
          "internalType": "uint256",
          "name": "_dateOfBirth",
          "type": "uint256"
        },
        {
          "internalType": "uint256",
          "name": "_aadharNo",
          "type": "uint256"
        },
        {
          "internalType": "string",
          "name": "_gender",
          "type": "string"
        },
        {
          "internalType": "string",
          "name": "_insuranceId",
          "type": "string"
        }
      ],
      "name": "addPatient",
      "outputs": [],
      "stateMutability": "nonpayable",
      "type": "function"
    },
    {
      "inputs": [
        {
          "internalType": "uint256",
          "name": "_age",
          "type": "uint256"
        },
        {
          "internalType": "uint256",
          "name": "_dateOfVisit",
          "type": "uint256"
        },
        {
          "internalType": "string",
          "name": "_diagnosis",
          "type": "string"
        },
        {
          "internalType": "string",
          "name": "_prescription",
          "type": "string"
        },
        {
          "internalType": "string[]",
          "name": "_testsAdvised",
          "type": "string[]"
        },
        {
          "internalType": "string[]",
          "name": "_testNames",
          "type": "string[]"
        },
        {
          "internalType": "string[]",
          "name": "_ipfsCIDs",
          "type": "string[]"
        },
        {
          "internalType": "uint256",
          "name": "_fees",
          "type": "uint256"
        },
        {
          "internalType": "uint256",
          "name": "_followUp",
          "type": "uint256"
        },
        {
          "internalType": "uint256",
          "name": "_bloodPressure",
          "type": "uint256"
        },
        {
          "internalType": "uint256",
          "name": "_weight",
          "type": "uint256"
        }
      ],
      "name": "addRecord",
      "outputs": [],
      "stateMutability": "nonpayable",
      "type": "function"
    }
  ],
  "bytecode": "0x608060405234801561001057600080fd5b50610b48806100206000396000f3fe608060405234801561001057600080fd5b50600436106100415760003560e01c80630869cfbc146100465780630f72a7941461007357806394b4fb6a14610088575b600080fd5b61005961005436600461078e565b61009b565b60405161006a9594939291906109ae565b60405180910390f35b610086610081366004610854565b610261565b005b6100866100963660046107bc565b61048f565b6000602081905290815260409020805481906100b690610a90565b80601f01602080910402602001604051908101604052809291908181526020018280546100e290610a90565b801561012f5780601f106101045761010080835404028352916020019161012f565b820191906000526020600020905b81548152906001019060200180831161011257829003601f168201915b50505050509080600101549080600201549080600301805461015090610a90565b80601f016020809104026020016040519081016040528092919081815260200182805461017c90610a90565b80156101c95780601f1061019e576101008083540402835291602001916101c9565b820191906000526020600020905b8154815290600101906020018083116101ac57829003601f168201915b5050505050908060040180546101de90610a90565b80601f016020809104026020016040519081016040528092919081815260200182805461020a90610a90565b80156102575780601f1061022c57610100808354040283529160200191610257565b820191906000526020600020905b81548152906001019060200180831161023a57829003601f168201915b5050505050905085565b3360009081526020819052604090206102786104f4565b8c815260208082018d8152604083018d8152606084018d9052608084018c905260a0840189905260c0840188905260e08401879052610100840186905260058501805460018181018355600092835291859020865160099092020190815592519083015551805184936102f2926002850192910190610540565b506060820151805161030e916003840191602090910190610540565b506080820151805161032a9160048401916020909101906105c4565b5060a0820151816005015560c0820151816006015560e08201518160070155610100820151816008015550506000826006016000600185600501805490506103729190610a79565b8152602001908152602001600020905087518951146103ac5760405162461bcd60e51b81526004016103a3906109ff565b60405180910390fd5b60005b895181101561047e576103c061061d565b8a82815181106103e057634e487b7160e01b600052603260045260246000fd5b6020026020010151816000018190525089828151811061041057634e487b7160e01b600052603260045260246000fd5b602090810291909101810151828201528354600181018555600085815282902083518051859460029094029092019261044e92849290910190610540565b5060208281015180516104679260018501920190610540565b50505050808061047690610acb565b9150506103af565b505050505050505050505050505050565b33600090815260208181526040909120865190916104b1918391890190610540565b50600181018590556002810184905582516104d59060038301906020860190610540565b5081516104eb9060048301906020850190610540565b50505050505050565b6040518061012001604052806000815260200160008152602001606081526020016060815260200160608152602001600081526020016000815260200160008152602001600081525090565b82805461054c90610a90565b90600052602060002090601f01602090048101928261056e57600085556105b4565b82601f1061058757805160ff19168380011785556105b4565b828001600101855582156105b4579182015b828111156105b4578251825591602001919060010190610599565b506105c0929150610637565b5090565b828054828255906000526020600020908101928215610611579160200282015b828111156106115782518051610601918491602090910190610540565b50916020019190600101906105e4565b506105c092915061064c565b604051806040016040528060608152602001606081525090565b5b808211156105c05760008155600101610638565b808211156105c05760006106608282610669565b5060010161064c565b50805461067590610a90565b6000825580601f1061068757506106a5565b601f0160209004906000526020600020908101906106a59190610637565b50565b600082601f8301126106b8578081fd5b8135602067ffffffffffffffff8211156106d4576106d4610afc565b6106e18182840201610a4f565b82815281810190858301855b8581101561071657610704898684358b0101610723565b845292840192908401906001016106ed565b5090979650505050505050565b600082601f830112610733578081fd5b813567ffffffffffffffff81111561074d5761074d610afc565b610760601f8201601f1916602001610a4f565b818152846020838601011115610774578283fd5b816020850160208301379081016020019190915292915050565b60006020828403121561079f578081fd5b81356001600160a01b03811681146107b5578182fd5b9392505050565b600080600080600060a086880312156107d3578081fd5b853567ffffffffffffffff808211156107ea578283fd5b6107f689838a01610723565b965060208801359550604088013594506060880135915080821115610819578283fd5b61082589838a01610723565b9350608088013591508082111561083a578283fd5b5061084788828901610723565b9150509295509295909350565b60008060008060008060008060008060006101608c8e031215610875578586fd5b8b359a5060208c0135995067ffffffffffffffff8060408e01351115610899578687fd5b6108a98e60408f01358f01610723565b99508060608e013511156108bb578687fd5b6108cb8e60608f01358f01610723565b98508060808e013511156108dd578687fd5b6108ed8e60808f01358f016106a8565b97508060a08e013511156108ff578687fd5b61090f8e60a08f01358f016106a8565b96508060c08e01351115610921578586fd5b506109328d60c08e01358e016106a8565b945060e08c013593506101008c013592506101208c013591506101408c013590509295989b509295989b9093969950565b60008151808452815b818110156109885760208185018101518683018201520161096c565b818111156109995782602083870101525b50601f01601f19169290920160200192915050565b600060a082526109c160a0830188610963565b86602084015285604084015282810360608401526109df8186610963565b905082810360808401526109f38185610963565b98975050505050505050565b60208082526030908201527f4c656e677468206d69736d61746368206265747765656e2074657374206e616d60408201526f657320616e642049504653204349447360801b606082015260800190565b60405181810167ffffffffffffffff81118282101715610a7157610a71610afc565b604052919050565b600082821015610a8b57610a8b610ae6565b500390565b600281046001821680610aa457607f821691505b60208210811415610ac557634e487b7160e01b600052602260045260246000fd5b50919050565b6000600019821415610adf57610adf610ae6565b5060010190565b634e487b7160e01b600052601160045260246000fd5b634e487b7160e01b600052604160045260246000fdfea26469706673582212207f4f99d64ee5b320de58aea4ac50d2da78648074df58d39c8afd0f12e1ed0e5a64736f6c63430008000033",
  "immutableReferences": {},
  "source": "// pragma solidity ^0.8.0;\r\n\r\n// contract PatientRecords {\r\n//     struct Patient {\r\n//         string name;\r\n//         uint256 dateOfBirth;\r\n//         uint256 aadharNo;\r\n//         string gender;\r\n//         string insuranceId;\r\n//         Record[] records;\r\n//     }\r\n\r\n//     struct Record {\r\n//         uint256 age;\r\n//         uint256 dateOfVisit;\r\n//         string diagnosis;\r\n//         string prescription;\r\n//         string[] testsAdvised;\r\n//         TestReport[] testReports;\r\n//         uint256 fees;\r\n//         uint256 followUp;\r\n//         Vitals vitals;\r\n//     }\r\n\r\n//     struct TestReport {\r\n//         string reportName;\r\n//         string ipfsCID;\r\n//     }\r\n\r\n//     struct Vitals {\r\n//         uint256 bloodPressure;\r\n//         uint256 weight;\r\n//     }\r\n\r\n//     mapping(address => Patient) public patients;\r\n\r\n//     function addPatient(\r\n//         string memory _name,\r\n//         uint256 _dateOfBirth,\r\n//         uint256 _aadharNo,\r\n//         string memory _gender,\r\n//         string memory _insuranceId\r\n//     ) public {\r\n//         Patient storage patient = patients[msg.sender];\r\n//         patient.name = _name;\r\n//         patient.dateOfBirth = _dateOfBirth;\r\n//         patient.aadharNo = _aadharNo;\r\n//         patient.gender = _gender;\r\n//         patient.insuranceId = _insuranceId;\r\n//     }\r\n\r\n//     function addRecord(\r\n//         uint256 _age,\r\n//         uint256 _dateOfVisit,\r\n//         string memory _diagnosis,\r\n//         string memory _prescription,\r\n//         string[] memory _testsAdvised,\r\n//         string[] memory _reportNames,\r\n//         string[] memory _ipfsCIDs,\r\n//         uint256 _fees,\r\n//         uint256 _followUp,\r\n//         uint256 _bloodPressure,\r\n//         uint256 _weight\r\n//     ) public {\r\n//         require(_reportNames.length == _ipfsCIDs.length, \"Mismatched array lengths\");\r\n\r\n//         TestReport[] memory testReports = new TestReport[](_reportNames.length);\r\n//         for (uint256 i = 0; i < _reportNames.length; i++) {\r\n//             testReports[i] = TestReport(_reportNames[i], _ipfsCIDs[i]);\r\n//         }\r\n\r\n//         Vitals memory vitals = Vitals(_bloodPressure, _weight);\r\n\r\n//         Record memory record = Record(\r\n//             _age,\r\n//             _dateOfVisit,\r\n//             _diagnosis,\r\n//             _prescription,\r\n//             _testsAdvised,\r\n//             testReports,\r\n//             _fees,\r\n//             _followUp,\r\n//             vitals\r\n//         );\r\n\r\n//         patients[msg.sender].records.push(record);\r\n//     }\r\n// }\r\n\r\npragma solidity ^0.8.0;\r\n\r\ncontract PatientRecords {\r\n    struct Patient {\r\n        string name;\r\n        uint256 dateOfBirth;\r\n        uint256 aadharNo;\r\n        string gender;\r\n        string insuranceId;\r\n        Record[] records;\r\n        mapping(uint256 => TestReport[]) recordTestReports;\r\n    }\r\n\r\n    struct Record {\r\n        uint256 age;\r\n        uint256 dateOfVisit;\r\n        string diagnosis;\r\n        string prescription;\r\n        string[] testsAdvised;\r\n        uint256 fees;\r\n        uint256 followUp;\r\n        uint256 bloodPressure;\r\n        uint256 weight;\r\n    }\r\n\r\n    struct TestReport {\r\n        string testName;\r\n        string ipfsCID;\r\n    }\r\n\r\n    mapping(address => Patient) public patients;\r\n\r\n    function addPatient(\r\n        string memory _name,\r\n        uint256 _dateOfBirth,\r\n        uint256 _aadharNo,\r\n        string memory _gender,\r\n        string memory _insuranceId\r\n    ) public {\r\n        Patient storage patient = patients[msg.sender];\r\n        patient.name = _name;\r\n        patient.dateOfBirth = _dateOfBirth;\r\n        patient.aadharNo = _aadharNo;\r\n        patient.gender = _gender;\r\n        patient.insuranceId = _insuranceId;\r\n    }\r\n\r\n    function addRecord(\r\n        uint256 _age,\r\n        uint256 _dateOfVisit,\r\n        string memory _diagnosis,\r\n        string memory _prescription,\r\n        string[] memory _testsAdvised,\r\n        string[] memory _testNames,\r\n        string[] memory _ipfsCIDs,\r\n        uint256 _fees,\r\n        uint256 _followUp,\r\n        uint256 _bloodPressure,\r\n        uint256 _weight\r\n    ) public {\r\n        Patient storage patient = patients[msg.sender];\r\n        Record memory record;\r\n        record.age = _age;\r\n        record.dateOfVisit = _dateOfVisit;\r\n        record.diagnosis = _diagnosis;\r\n        record.prescription = _prescription;\r\n        record.testsAdvised = _testsAdvised;\r\n        record.fees = _fees;\r\n        record.followUp = _followUp;\r\n        record.bloodPressure = _bloodPressure;\r\n        record.weight = _weight;\r\n\r\n        patient.records.push(record);\r\n\r\n        TestReport[] storage testReports = patient.recordTestReports[patient.records.length - 1];\r\n        \r\n        require(\r\n            _testNames.length == _ipfsCIDs.length,\r\n            \"Length mismatch between test names and IPFS CIDs\"\r\n        );\r\n        \r\n        for (uint256 i = 0; i < _testNames.length; i++) {\r\n            TestReport memory testReport;\r\n            testReport.testName = _testNames[i];\r\n            testReport.ipfsCID = _ipfsCIDs[i];\r\n            testReports.push(testReport);\r\n        }\r\n    }\r\n}\r\n\r\n",
  "sourcePath": "C:\\Users\\vikra\\Desktop\\test\\truffle\\contracts\\Patient.sol",
  "compiler": {
    "name": "solc",
    "version": "0.8.0+commit.c7dfd78e.Emscripten.clang"
  },
  "schemaVersion": "3.4.14",
  "updatedAt": "2023-08-09T11:21:09.541Z",
  "networkType": "ethereum",
  "devdoc": {
    "kind": "dev",
    "methods": {},
    "version": 1
  },
  "userdoc": {
    "kind": "user",
    "methods": {},
    "version": 1
  }
}