{
  "contractName": "PatientRecords",
  "abi": [
    {
      "constant": true,
      "inputs": [
        {
          "internalType": "address",
          "name": "",
          "type": "address"
        }
      ],
      "name": "patients",
      "outputs": [
        {
          "internalType": "string",
          "name": "name",
          "type": "string"
        },
        {
          "internalType": "uint256",
          "name": "dateOfBirth",
          "type": "uint256"
        },
        {
          "internalType": "uint256",
          "name": "aadharNo",
          "type": "uint256"
        },
        {
          "internalType": "string",
          "name": "gender",
          "type": "string"
        },
        {
          "internalType": "string",
          "name": "insuranceId",
          "type": "string"
        }
      ],
      "payable": false,
      "stateMutability": "view",
      "type": "function"
    },
    {
      "constant": false,
      "inputs": [
        {
          "internalType": "string",
          "name": "_name",
          "type": "string"
        },
        {
          "internalType": "uint256",
          "name": "_dateOfBirth",
          "type": "uint256"
        },
        {
          "internalType": "uint256",
          "name": "_aadharNo",
          "type": "uint256"
        },
        {
          "internalType": "string",
          "name": "_gender",
          "type": "string"
        },
        {
          "internalType": "string",
          "name": "_insuranceId",
          "type": "string"
        }
      ],
      "name": "addPatient",
      "outputs": [],
      "payable": false,
      "stateMutability": "nonpayable",
      "type": "function"
    },
    {
      "constant": false,
      "inputs": [
        {
          "internalType": "uint256",
          "name": "_age",
          "type": "uint256"
        },
        {
          "internalType": "uint256",
          "name": "_dateOfVisit",
          "type": "uint256"
        },
        {
          "internalType": "string",
          "name": "_diagnosis",
          "type": "string"
        },
        {
          "internalType": "string",
          "name": "_prescription",
          "type": "string"
        },
        {
          "internalType": "uint256",
          "name": "_fees",
          "type": "uint256"
        },
        {
          "internalType": "uint256",
          "name": "_followUp",
          "type": "uint256"
        },
        {
          "internalType": "uint256",
          "name": "_bloodPressure",
          "type": "uint256"
        },
        {
          "internalType": "uint256",
          "name": "_weight",
          "type": "uint256"
        }
      ],
      "name": "addRecord",
      "outputs": [],
      "payable": false,
      "stateMutability": "nonpayable",
      "type": "function"
    }
  ],
  "bytecode": "0x608060405234801561001057600080fd5b50610b06806100206000396000f3fe608060405234801561001057600080fd5b50600436106100415760003560e01c80630869cfbc146100465780638aefbe01146101e957806394b4fb6a14610378575b600080fd5b6100886004803603602081101561005c57600080fd5b81019080803573ffffffffffffffffffffffffffffffffffffffff169060200190929190505050610575565b60405180806020018681526020018581526020018060200180602001848103845289818151815260200191508051906020019080838360005b838110156100dc5780820151818401526020810190506100c1565b50505050905090810190601f1680156101095780820380516001836020036101000a031916815260200191505b50848103835286818151815260200191508051906020019080838360005b83811015610142578082015181840152602081019050610127565b50505050905090810190601f16801561016f5780820380516001836020036101000a031916815260200191505b50848103825285818151815260200191508051906020019080838360005b838110156101a857808201518184015260208101905061018d565b50505050905090810190601f1680156101d55780820380516001836020036101000a031916815260200191505b509850505050505050505060405180910390f35b610376600480360361010081101561020057600080fd5b8101908080359060200190929190803590602001909291908035906020019064010000000081111561023157600080fd5b82018360208201111561024357600080fd5b8035906020019184600183028401116401000000008311171561026557600080fd5b91908080601f016020809104026020016040519081016040528093929190818152602001838380828437600081840152601f19601f820116905080830192505050505050509192919290803590602001906401000000008111156102c857600080fd5b8201836020820111156102da57600080fd5b803590602001918460018302840111640100000000831117156102fc57600080fd5b91908080601f016020809104026020016040519081016040528093929190818152602001838380828437600081840152601f19601f82011690508083019250505050505050919291929080359060200190929190803590602001909291908035906020019092919080359060200190929190505050610773565b005b610573600480360360a081101561038e57600080fd5b81019080803590602001906401000000008111156103ab57600080fd5b8201836020820111156103bd57600080fd5b803590602001918460018302840111640100000000831117156103df57600080fd5b91908080601f016020809104026020016040519081016040528093929190818152602001838380828437600081840152601f19601f82011690508083019250505050505050919291929080359060200190929190803590602001909291908035906020019064010000000081111561045657600080fd5b82018360208201111561046857600080fd5b8035906020019184600183028401116401000000008311171561048a57600080fd5b91908080601f016020809104026020016040519081016040528093929190818152602001838380828437600081840152601f19601f820116905080830192505050505050509192919290803590602001906401000000008111156104ed57600080fd5b8201836020820111156104ff57600080fd5b8035906020019184600183028401116401000000008311171561052157600080fd5b91908080601f016020809104026020016040519081016040528093929190818152602001838380828437600081840152601f19601f8201169050808301925050505050505091929192905050506108c0565b005b6000602052806000526040600020600091509050806000018054600181600116156101000203166002900480601f0160208091040260200160405190810160405280929190818152602001828054600181600116156101000203166002900480156106215780601f106105f657610100808354040283529160200191610621565b820191906000526020600020905b81548152906001019060200180831161060457829003601f168201915b505050505090806001015490806002015490806003018054600181600116156101000203166002900480601f0160208091040260200160405190810160405280929190818152602001828054600181600116156101000203166002900480156106cb5780601f106106a0576101008083540402835291602001916106cb565b820191906000526020600020905b8154815290600101906020018083116106ae57829003601f168201915b505050505090806004018054600181600116156101000203166002900480601f0160208091040260200160405190810160405280929190818152602001828054600181600116156101000203166002900480156107695780601f1061073e57610100808354040283529160200191610769565b820191906000526020600020905b81548152906001019060200180831161074c57829003601f168201915b5050505050905085565b60008060003373ffffffffffffffffffffffffffffffffffffffff1673ffffffffffffffffffffffffffffffffffffffff16815260200190815260200160002090506107bd610967565b898160000181815250508881602001818152505087816040018190525086816060018190525085816080018181525050848160a0018181525050838160c0018181525050828160e00181815250508160050181908060018154018082558091505090600182039060005260206000209060080201600090919290919091506000820151816000015560208201518160010155604082015181600201908051906020019061086b9291906109ac565b5060608201518160030190805190602001906108889291906109ac565b506080820151816004015560a0820151816005015560c0820151816006015560e0820151816007015550505050505050505050505050565b60008060003373ffffffffffffffffffffffffffffffffffffffff1673ffffffffffffffffffffffffffffffffffffffff16815260200190815260200160002090508581600001908051906020019061091a929190610a2c565b5084816001018190555083816002018190555082816003019080519060200190610945929190610a2c565b508181600401908051906020019061095e929190610a2c565b50505050505050565b60405180610100016040528060008152602001600081526020016060815260200160608152602001600081526020016000815260200160008152602001600081525090565b828054600181600116156101000203166002900490600052602060002090601f016020900481019282601f106109ed57805160ff1916838001178555610a1b565b82800160010185558215610a1b579182015b82811115610a1a5782518255916020019190600101906109ff565b5b509050610a289190610aac565b5090565b828054600181600116156101000203166002900490600052602060002090601f016020900481019282601f10610a6d57805160ff1916838001178555610a9b565b82800160010185558215610a9b579182015b82811115610a9a578251825591602001919060010190610a7f565b5b509050610aa89190610aac565b5090565b610ace91905b80821115610aca576000816000905550600101610ab2565b5090565b9056fea265627a7a72315820bd53fb602d627dce567dd32f2a58a7c111a7d612ff469cfda49e05980642766064736f6c63430005100032",
  "source": "pragma solidity ^0.5.16;\r\n\r\ncontract PatientRecords {\r\n    struct Patient {\r\n        string name;\r\n        uint256 dateOfBirth;\r\n        uint256 aadharNo;\r\n        string gender;\r\n        string insuranceId;\r\n        Record[] records;\r\n        // mapping(uint256 => TestReport[]) recordTestReports;\r\n    }\r\n\r\n    struct Record {\r\n        uint256 age;\r\n        uint256 dateOfVisit;\r\n        string diagnosis;\r\n        string prescription;\r\n        // string[] testsAdvised;\r\n        uint256 fees;\r\n        uint256 followUp;\r\n        uint256 bloodPressure;\r\n        uint256 weight;\r\n    }\r\n\r\n    // struct TestReport {\r\n    //     string testName;\r\n    //     string ipfsCID;\r\n    // }\r\n\r\n    mapping(address => Patient) public patients;\r\n\r\n    function addPatient(\r\n        string memory _name,\r\n        uint256 _dateOfBirth,\r\n        uint256 _aadharNo,\r\n        string memory _gender,\r\n        string memory _insuranceId\r\n    ) public {\r\n        Patient storage patient = patients[msg.sender];\r\n        patient.name = _name;\r\n        patient.dateOfBirth = _dateOfBirth;\r\n        patient.aadharNo = _aadharNo;\r\n        patient.gender = _gender;\r\n        patient.insuranceId = _insuranceId;\r\n    }\r\n\r\n    function addRecord(\r\n        uint256 _age,\r\n        uint256 _dateOfVisit,\r\n        string memory _diagnosis,\r\n        string memory _prescription,\r\n        // string[] memory _testsAdvised,\r\n        // string[] memory _testNames,\r\n        // string[] memory _ipfsCIDs,\r\n        uint256 _fees,\r\n        uint256 _followUp,\r\n        uint256 _bloodPressure,\r\n        uint256 _weight\r\n    ) public {\r\n        Patient storage patient = patients[msg.sender];\r\n        Record memory record;\r\n        record.age = _age;\r\n        record.dateOfVisit = _dateOfVisit;\r\n        record.diagnosis = _diagnosis;\r\n        record.prescription = _prescription;\r\n        // record.testsAdvised = _testsAdvised;\r\n        record.fees = _fees;\r\n        record.followUp = _followUp;\r\n        record.bloodPressure = _bloodPressure;\r\n        record.weight = _weight;\r\n\r\n        patient.records.push(record);\r\n\r\n        // TestReport[] storage testReports = patient.recordTestReports[patient.records.length - 1];\r\n        \r\n        // require(\r\n        //     _testNames.length == _ipfsCIDs.length,\r\n        //     \"Length mismatch between test names and IPFS CIDs\"\r\n        // );\r\n        \r\n        // for (uint256 i = 0; i < _testNames.length; i++) {\r\n        //     // TestReport memory testReport;\r\n        //     testReport.testName = _testNames[i];\r\n        //     testReport.ipfsCID = _ipfsCIDs[i];\r\n        //     testReports.push(testReport);\r\n        // }\r\n    }\r\n}\r\n",
  "sourcePath": "C:\\Users\\vikra\\Desktop\\BE-Project\\contract\\truffle\\contracts\\Patient.sol",
  "compiler": {
    "name": "solc",
    "version": "0.5.16+commit.9c3226ce.Emscripten.clang"
  },
  "schemaVersion": "3.4.14",
  "updatedAt": "2023-08-09T11:46:51.950Z",
  "networkType": "ethereum",
  "devdoc": {
    "methods": {}
  },
  "userdoc": {
    "methods": {}
  }
}