{
  "contractName": "PatientRecords",
  "abi": [
    {
      "constant": true,
      "inputs": [
        {
          "internalType": "uint256",
          "name": "",
          "type": "uint256"
        }
      ],
      "name": "patients",
      "outputs": [
        {
          "internalType": "address",
          "name": "account_address",
          "type": "address"
        },
        {
          "internalType": "string",
          "name": "username",
          "type": "string"
        },
        {
          "internalType": "string",
          "name": "name",
          "type": "string"
        },
        {
          "internalType": "string",
          "name": "gender",
          "type": "string"
        },
        {
          "internalType": "uint256",
          "name": "dateOfBirth",
          "type": "uint256"
        },
        {
          "internalType": "uint256",
          "name": "created_at",
          "type": "uint256"
        }
      ],
      "payable": false,
      "stateMutability": "view",
      "type": "function"
    },
    {
      "constant": true,
      "inputs": [
        {
          "internalType": "uint256",
          "name": "",
          "type": "uint256"
        }
      ],
      "name": "records",
      "outputs": [
        {
          "internalType": "uint256",
          "name": "id",
          "type": "uint256"
        },
        {
          "internalType": "address",
          "name": "user_address",
          "type": "address"
        },
        {
          "internalType": "string",
          "name": "title",
          "type": "string"
        },
        {
          "internalType": "uint256",
          "name": "date",
          "type": "uint256"
        },
        {
          "internalType": "string",
          "name": "filename",
          "type": "string"
        },
        {
          "internalType": "string",
          "name": "file",
          "type": "string"
        },
        {
          "internalType": "uint256",
          "name": "created_at",
          "type": "uint256"
        }
      ],
      "payable": false,
      "stateMutability": "view",
      "type": "function"
    },
    {
      "constant": false,
      "inputs": [
        {
          "internalType": "address",
          "name": "_account_address",
          "type": "address"
        },
        {
          "internalType": "string",
          "name": "_username",
          "type": "string"
        },
        {
          "internalType": "string",
          "name": "_name",
          "type": "string"
        },
        {
          "internalType": "string",
          "name": "_gender",
          "type": "string"
        },
        {
          "internalType": "uint256",
          "name": "_dateOfBirth",
          "type": "uint256"
        },
        {
          "internalType": "uint256",
          "name": "_created_at",
          "type": "uint256"
        }
      ],
      "name": "addPatient",
      "outputs": [],
      "payable": false,
      "stateMutability": "nonpayable",
      "type": "function"
    },
    {
      "constant": false,
      "inputs": [
        {
          "internalType": "uint256",
          "name": "_id",
          "type": "uint256"
        },
        {
          "internalType": "string",
          "name": "_title",
          "type": "string"
        },
        {
          "internalType": "uint256",
          "name": "_date",
          "type": "uint256"
        },
        {
          "internalType": "string",
          "name": "_filename",
          "type": "string"
        },
        {
          "internalType": "string",
          "name": "_file",
          "type": "string"
        },
        {
          "internalType": "uint256",
          "name": "_created_at",
          "type": "uint256"
        }
      ],
      "name": "addRecord",
      "outputs": [],
      "payable": false,
      "stateMutability": "nonpayable",
      "type": "function"
    },
    {
      "constant": true,
      "inputs": [],
      "name": "getCount",
      "outputs": [
        {
          "internalType": "uint256",
          "name": "count",
          "type": "uint256"
        }
      ],
      "payable": false,
      "stateMutability": "view",
      "type": "function"
    },
    {
      "constant": true,
      "inputs": [
        {
          "internalType": "address",
          "name": "user_address",
          "type": "address"
        }
      ],
      "name": "getAllRecordsForAddress",
      "outputs": [
        {
          "components": [
            {
              "internalType": "uint256",
              "name": "id",
              "type": "uint256"
            },
            {
              "internalType": "address",
              "name": "user_address",
              "type": "address"
            },
            {
              "internalType": "string",
              "name": "title",
              "type": "string"
            },
            {
              "internalType": "uint256",
              "name": "date",
              "type": "uint256"
            },
            {
              "internalType": "string",
              "name": "filename",
              "type": "string"
            },
            {
              "internalType": "string",
              "name": "file",
              "type": "string"
            },
            {
              "internalType": "uint256",
              "name": "created_at",
              "type": "uint256"
            }
          ],
          "internalType": "struct PatientRecords.Record[]",
          "name": "",
          "type": "tuple[]"
        }
      ],
      "payable": false,
      "stateMutability": "view",
      "type": "function"
    }
  ],
  "bytecode": "0x608060405234801561001057600080fd5b5061149e806100206000396000f3fe608060405234801561001057600080fd5b50600436106100625760003560e01c806334461067146100675780635bebc2ea1461009d57806393119a83146100b957806395bc29df146100ee578063a87d942c1461010a578063c7ceace114610128575b600080fd5b610081600480360361007c9190810190610ecd565b610158565b604051610094979695949392919061125b565b60405180910390f35b6100b760048036036100b29190810190610dfc565b61038f565b005b6100d360048036036100ce9190810190610ecd565b6104bc565b6040516100e5969594939291906111a8565b60405180910390f35b61010860048036036101039190810190610ef6565b6106ed565b005b61011261082a565b60405161011f9190611240565b60405180910390f35b610142600480360361013d9190810190610dd3565b610837565b60405161014f919061121e565b60405180910390f35b6001818154811061016557fe5b90600052602060002090600702016000915090508060000154908060010160009054906101000a900473ffffffffffffffffffffffffffffffffffffffff1690806002018054600181600116156101000203166002900480601f01602080910402602001604051908101604052809291908181526020018280546001816001161561010002031660029004801561023d5780601f106102125761010080835404028352916020019161023d565b820191906000526020600020905b81548152906001019060200180831161022057829003601f168201915b505050505090806003015490806004018054600181600116156101000203166002900480601f0160208091040260200160405190810160405280929190818152602001828054600181600116156101000203166002900480156102e15780601f106102b6576101008083540402835291602001916102e1565b820191906000526020600020905b8154815290600101906020018083116102c457829003601f168201915b505050505090806005018054600181600116156101000203166002900480601f01602080910402602001604051908101604052809291908181526020018280546001816001161561010002031660029004801561037f5780601f106103545761010080835404028352916020019161037f565b820191906000526020600020905b81548152906001019060200180831161036257829003601f168201915b5050505050908060060154905087565b60006040518060c001604052808873ffffffffffffffffffffffffffffffffffffffff168152602001878152602001868152602001858152602001848152602001838152509080600181540180825580915050906001820390600052602060002090600602016000909192909190915060008201518160000160006101000a81548173ffffffffffffffffffffffffffffffffffffffff021916908373ffffffffffffffffffffffffffffffffffffffff1602179055506020820151816001019080519060200190610462929190610c5d565b50604082015181600201908051906020019061047f929190610c5d565b50606082015181600301908051906020019061049c929190610c5d565b506080820151816004015560a08201518160050155505050505050505050565b600081815481106104c957fe5b90600052602060002090600602016000915090508060000160009054906101000a900473ffffffffffffffffffffffffffffffffffffffff1690806001018054600181600116156101000203166002900480601f01602080910402602001604051908101604052809291908181526020018280546001816001161561010002031660029004801561059b5780601f106105705761010080835404028352916020019161059b565b820191906000526020600020905b81548152906001019060200180831161057e57829003601f168201915b505050505090806002018054600181600116156101000203166002900480601f0160208091040260200160405190810160405280929190818152602001828054600181600116156101000203166002900480156106395780601f1061060e57610100808354040283529160200191610639565b820191906000526020600020905b81548152906001019060200180831161061c57829003601f168201915b505050505090806003018054600181600116156101000203166002900480601f0160208091040260200160405190810160405280929190818152602001828054600181600116156101000203166002900480156106d75780601f106106ac576101008083540402835291602001916106d7565b820191906000526020600020905b8154815290600101906020018083116106ba57829003601f168201915b5050505050908060040154908060050154905086565b60016040518060e001604052808881526020013373ffffffffffffffffffffffffffffffffffffffff16815260200187815260200186815260200185815260200184815260200183815250908060018154018082558091505090600182039060005260206000209060070201600090919290919091506000820151816000015560208201518160010160006101000a81548173ffffffffffffffffffffffffffffffffffffffff021916908373ffffffffffffffffffffffffffffffffffffffff16021790555060408201518160020190805190602001906107d0929190610c5d565b506060820151816003015560808201518160040190805190602001906107f7929190610c5d565b5060a0820151816005019080519060200190610814929190610c5d565b5060c08201518160060155505050505050505050565b6000600180549050905090565b606060008060009050600091505b61084d61082a565b8210156108dc578373ffffffffffffffffffffffffffffffffffffffff166001838154811061087857fe5b906000526020600020906007020160010160009054906101000a900473ffffffffffffffffffffffffffffffffffffffff1673ffffffffffffffffffffffffffffffffffffffff1614156108cf5780806001019150505b8180600101925050610845565b60608160405190808252806020026020018201604052801561091857816020015b610905610cdd565b8152602001906001900390816108fd5790505b50905060009150600092505b61092c61082a565b831015610c52578473ffffffffffffffffffffffffffffffffffffffff166001848154811061095757fe5b906000526020600020906007020160010160009054906101000a900473ffffffffffffffffffffffffffffffffffffffff1673ffffffffffffffffffffffffffffffffffffffff161415610c4557600183815481106109b257fe5b90600052602060002090600702016040518060e0016040529081600082015481526020016001820160009054906101000a900473ffffffffffffffffffffffffffffffffffffffff1673ffffffffffffffffffffffffffffffffffffffff1673ffffffffffffffffffffffffffffffffffffffff168152602001600282018054600181600116156101000203166002900480601f016020809104026020016040519081016040528092919081815260200182805460018160011615610100020316600290048015610ac45780601f10610a9957610100808354040283529160200191610ac4565b820191906000526020600020905b815481529060010190602001808311610aa757829003601f168201915b5050505050815260200160038201548152602001600482018054600181600116156101000203166002900480601f016020809104026020016040519081016040528092919081815260200182805460018160011615610100020316600290048015610b705780601f10610b4557610100808354040283529160200191610b70565b820191906000526020600020905b815481529060010190602001808311610b5357829003601f168201915b50505050508152602001600582018054600181600116156101000203166002900480601f016020809104026020016040519081016040528092919081815260200182805460018160011615610100020316600290048015610c125780601f10610be757610100808354040283529160200191610c12565b820191906000526020600020905b815481529060010190602001808311610bf557829003601f168201915b50505050508152602001600682015481525050818381518110610c3157fe5b602002602001018190525081806001019250505b8280600101935050610924565b809350505050919050565b828054600181600116156101000203166002900490600052602060002090601f016020900481019282601f10610c9e57805160ff1916838001178555610ccc565b82800160010185558215610ccc579182015b82811115610ccb578251825591602001919060010190610cb0565b5b509050610cd99190610d30565b5090565b6040518060e0016040528060008152602001600073ffffffffffffffffffffffffffffffffffffffff16815260200160608152602001600081526020016060815260200160608152602001600081525090565b610d5291905b80821115610d4e576000816000905550600101610d36565b5090565b90565b600081359050610d648161142d565b92915050565b600082601f830112610d7b57600080fd5b8135610d8e610d898261130c565b6112df565b91508082526020830160208301858383011115610daa57600080fd5b610db58382846113da565b50505092915050565b600081359050610dcd81611444565b92915050565b600060208284031215610de557600080fd5b6000610df384828501610d55565b91505092915050565b60008060008060008060c08789031215610e1557600080fd5b6000610e2389828a01610d55565b965050602087013567ffffffffffffffff811115610e4057600080fd5b610e4c89828a01610d6a565b955050604087013567ffffffffffffffff811115610e6957600080fd5b610e7589828a01610d6a565b945050606087013567ffffffffffffffff811115610e9257600080fd5b610e9e89828a01610d6a565b9350506080610eaf89828a01610dbe565b92505060a0610ec089828a01610dbe565b9150509295509295509295565b600060208284031215610edf57600080fd5b6000610eed84828501610dbe565b91505092915050565b60008060008060008060c08789031215610f0f57600080fd5b6000610f1d89828a01610dbe565b965050602087013567ffffffffffffffff811115610f3a57600080fd5b610f4689828a01610d6a565b9550506040610f5789828a01610dbe565b945050606087013567ffffffffffffffff811115610f7457600080fd5b610f8089828a01610d6a565b935050608087013567ffffffffffffffff811115610f9d57600080fd5b610fa989828a01610d6a565b92505060a0610fba89828a01610dbe565b9150509295509295509295565b6000610fd383836110e0565b905092915050565b610fe48161139e565b82525050565b610ff38161139e565b82525050565b600061100482611348565b61100e818561136b565b93508360208202850161102085611338565b8060005b8581101561105c578484038952815161103d8582610fc7565b94506110488361135e565b925060208a01995050600181019050611024565b50829750879550505050505092915050565b600061107982611353565b611083818561137c565b93506110938185602086016113e9565b61109c8161141c565b840191505092915050565b60006110b282611353565b6110bc818561138d565b93506110cc8185602086016113e9565b6110d58161141c565b840191505092915050565b600060e0830160008301516110f8600086018261118a565b50602083015161110b6020860182610fdb565b5060408301518482036040860152611123828261106e565b9150506060830151611138606086018261118a565b5060808301518482036080860152611150828261106e565b91505060a083015184820360a086015261116a828261106e565b91505060c083015161117f60c086018261118a565b508091505092915050565b611193816113d0565b82525050565b6111a2816113d0565b82525050565b600060c0820190506111bd6000830189610fea565b81810360208301526111cf81886110a7565b905081810360408301526111e381876110a7565b905081810360608301526111f781866110a7565b90506112066080830185611199565b61121360a0830184611199565b979650505050505050565b600060208201905081810360008301526112388184610ff9565b905092915050565b60006020820190506112556000830184611199565b92915050565b600060e082019050611270600083018a611199565b61127d6020830189610fea565b818103604083015261128f81886110a7565b905061129e6060830187611199565b81810360808301526112b081866110a7565b905081810360a08301526112c481856110a7565b90506112d360c0830184611199565b98975050505050505050565b6000604051905081810181811067ffffffffffffffff8211171561130257600080fd5b8060405250919050565b600067ffffffffffffffff82111561132357600080fd5b601f19601f8301169050602081019050919050565b6000819050602082019050919050565b600081519050919050565b600081519050919050565b6000602082019050919050565b600082825260208201905092915050565b600082825260208201905092915050565b600082825260208201905092915050565b60006113a9826113b0565b9050919050565b600073ffffffffffffffffffffffffffffffffffffffff82169050919050565b6000819050919050565b82818337600083830152505050565b60005b838110156114075780820151818401526020810190506113ec565b83811115611416576000848401525b50505050565b6000601f19601f8301169050919050565b6114368161139e565b811461144157600080fd5b50565b61144d816113d0565b811461145857600080fd5b5056fea365627a7a72315820b2e8dad2b05c8d3a91cc160a09035803f76f3943ba6502b1bd15e6bd8c3559d66c6578706572696d656e74616cf564736f6c63430005100040",
  "source": "pragma solidity ^0.5.16;\r\npragma experimental ABIEncoderV2;\r\n\r\ncontract PatientRecords {\r\n    struct Patient {\r\n        address account_address;\r\n        string username;\r\n        string name;\r\n        string gender;\r\n        uint256 dateOfBirth;\r\n        uint256 created_at;\r\n    }\r\n    Patient[] public patients;\r\n\r\n    function addPatient(\r\n        address _account_address,\r\n        string memory _username,\r\n        string memory _name,\r\n        string memory _gender,\r\n        uint256 _dateOfBirth,\r\n        uint256 _created_at\r\n    ) public {\r\n        patients.push(Patient({ account_address : _account_address,\r\n        name : _name,\r\n        username : _username,\r\n        gender : _gender,\r\n        dateOfBirth : _dateOfBirth,\r\n        created_at : _created_at}));\r\n        \r\n    }\r\n\r\n    struct Record {\r\n        uint256 id;\r\n        address user_address;\r\n        string title;\r\n        uint256 date;\r\n        string filename;\r\n        string file;\r\n        uint256 created_at;\r\n    } \r\n    Record[] public records;\r\n    \r\n    function addRecord(\r\n        uint256 _id,\r\n        string memory _title,\r\n        uint256 _date,\r\n        string memory _filename,\r\n        string memory _file,\r\n        uint256 _created_at\r\n    ) public {\r\n    \r\n    records.push(Record({\r\n            id: _id,\r\n            user_address: msg.sender,\r\n            title: _title,\r\n            date: _date,\r\n            filename: _filename,\r\n            file: _file,\r\n            created_at: _created_at\r\n    }));\r\n    }\r\nfunction getCount() public view returns(uint count) {\r\n    return records.length;\r\n}\r\n    function getAllRecordsForAddress(address user_address) public view returns (Record[] memory) {\r\n        uint i;\r\n        uint count = 0;\r\n        for (i = 0; i < getCount(); i++) {\r\n            if (records[i].user_address == user_address) {\r\n                count++;\r\n            }\r\n        }\r\n\r\n        Record[] memory userRecords = new Record[](count);\r\n        count = 0;\r\n        for (i = 0; i < getCount(); i++) {\r\n            if (records[i].user_address == user_address) {\r\n                userRecords[count] = records[i];\r\n                count++;\r\n            }\r\n        }\r\n        return userRecords;\r\n    }\r\n    \r\n    \r\n}\r\n",
  "sourcePath": "C:\\Users\\vikra\\Desktop\\BE-Project\\contract\\truffle\\contracts\\Patient.sol",
  "compiler": {
    "name": "solc",
    "version": "0.5.16+commit.9c3226ce.Emscripten.clang"
  },
  "schemaVersion": "3.4.14",
  "updatedAt": "2023-11-16T13:36:52.146Z",
  "networkType": "ethereum",
  "devdoc": {
    "methods": {}
  },
  "userdoc": {
    "methods": {}
  }
}